:020000042000DA
:10000000F0FF0320810800207D04002081040020EF
:1000100085040020890400208D0400209104002024
:100020000000000000000000000000009504002017
:1000300099040020000000009D040020A10400207D
:10004000A5040020A9040020AD040020B104002074
:10005000B5040020B9040020BD040020C104002024
:10006000C5040020C9040020CD040020D1040020D4
:10007000D5040020D9040020DD040020E104002084
:10008000E5040020E9040020ED040020F104002034
:10009000F5040020F9040020FD04002001050020E3
:1000A00005050020090500200D0500201105002090
:1000B00015050020190500201D0500202105002040
:1000C00025050020290500202D05002031050020F0
:1000D00035050020390500203D05002041050020A0
:1000E00045050020490500204D0500205105002050
:1000F00055050020590500205D0500206105002000
:1001000065050020690500206D05002071050020AF
:1001100075050020790500207D050020810500205F
:1001200085050020890500208D050020910500200F
:1001300095050020990500209D050020A1050020BF
:10014000A5050020A9050020AD050020B10500206F
:10015000B5050020B9050020BD050020C10500201F
:10016000C5050020C9050020CD050020D1050020CF
:10017000D5050020D9050020DD050020E10500207F
:10018000E5050020E9050020ED050020F10500202F
:10019000F5050020F9050020FD05002001060020DE
:1001A00005060020090600200D060020110600208B
:1001B00015060020190600201D060020210600203B
:1001C00025060020290600202D06002031060020EB
:1001D00035060020390600203D060020410600209B
:1001E00045060020490600204D060020510600204B
:1001F00055060020590600205D06002061060020FB
:1002000065060020690600206D06002071060020AA
:1002100075060020790600207D060020810600205A
:1002200085060020890600208D060020910600200A
:1002300095060020990600209D060020A1060020BA
:10024000A5060020A9060020AD060020B10600206A
:10025000B5060020B9060020BD060020C10600201A
:10026000C5060020C9060020CD060020D1060020CA
:10027000D5060020D9060020DD060020E10600207A
:10028000E5060020E9060020ED060020F10600202A
:10029000F5060020F9060020FD06002001070020D9
:1002A00005070020090700200D0700201107002086
:1002B0001507002079040020F0FF032081080020AA
:1002C0007D040020810400200000000000000000E8
:1002D00000200100020003000400050006000700E2
:1002E0005FEA00085FEA00095FEA000A5FEA000BC4
:1002F0005FEA000C02488546002000BFAFF3008093
:10030000F0FF032000F0BCBAAFF30080AFF3008031
:1003100000000000000000000000000000000000DD
:1003200000000000000000000000000000000000CD
:1003300000000000000000000000000000000000BD
:1003400000000000000000000000000000000000AD
:10035000000000000000000000000000000000009D
:10036000000000000000000000000000000000008D
:10037000000000000000000000000000000000007D
:10038000000000000000000000000000000000006D
:10039000000000000000000000000000000000005D
:1003A000000000000000000000000000000000004D
:1003B000000000000000000000000000000000003D
:1003C000000000000000000000000000000000002D
:1003D000000000000000000000000000000000001D
:1003E000000000000000000000000000000000000D
:1003F00000000000000000000000000000000000FD
:10040000000400202D070020190700201D070020F0
:1004100099070020000000208009002039040020F6
:100420003D040020000000FF27474E55432056277B
:10043000342E372E33000000704700BF704700BFD6
:100440004FF44043C4F201435A6912B14FF0FF30F8
:1004500058614FF44041C4F201418B6913B14FF030
:10046000FF328A614FF44040C4F20140C16911B1CA
:100470004FF0FF33C3617047FEE700BFFEE700BFE8
:10048000FEE700BFFEE700BFFEE700BFFEE700BFDC
:10049000FEE700BFFEE700BFFEE700BFFEE700BFCC
:1004A000FEE700BF704700BF704700BF704700BF46
:1004B000704700BF704700BF704700BF704700BF64
:1004C000704700BF704700BF704700BF704700BF54
:1004D000704700BF704700BF704700BF704700BF44
:1004E000704700BF704700BF704700BF704700BF34
:10071000704700BF704700BF704700BF10B50C4660
:1007200000F020F8204600F01DF810BD08B500F0DC
:1007300013F8FEE74FF6FF724FF40053C4F2014383
:100740001146C0F20F01C0F27F024FF6FF701A612E
:1007500059619861DA61704708B50446204600F097
:1007600009F8FBE708B500F011F800F009F80007F8
:10077000FBD408BD4FF08843C3F81801704700BF91
:100780004FF08843D3F80401704700BF4FF088430F
:10079000C3F81C01704700BFDFF8D8C02D482E49B0
:1007A0002E4A2F4B2DE9F041DCF80080DFF8C8E03D
:1007B0002C4F2D4E2D4D2E4C08F58058CCF8008036
:1007C000DEF800C00CF58058CEF80080D7F800E0C5
:1007D0000EF5805CC7F800C0376807F580573760B2
:1007E0002E6806F580572F6025781035EEB22670FA
:1007F00004781034E7B2077008781030C5B20D7075
:1008000011781031CEB216701A781032D4B21C7032
:100810000023312B4FF089474FF4007506DD4BF66E
:10082000BE20CCF6FE20FFF797FF002397F8490083
:100830006FF3000087F84900BD607D6197F84910AB
:1008400001336FF30001312B87F84910BD60BD61A2
:10085000E5DCEBE77E090020640900206509002043
:100860007C0900207009002074090020780900200C
:0C0870007D090020680900206C090020B0
:10088000002000210022002300240025002600274C
:10089000804681468246834684461A481A4B9842CF
:1008A00017D2DA1C041D111B21F003020346101895
:1008B000002183421960C2F380020AD01AB1844237
:1008C0002346216005D01A1D5960083383425160C8
:1008D000F9D1FFF7B5FD0D484FF46D41CEF200019F
:1008E00020F07F038B608B6000F012F8AFF3008084
:1008F0000348024986468C46604700BF990700209E
:100900002D0700208809002088090020000400200D
:1009100008B5FFF70FFF4FF40053C4F20043104A2D
:100920001068196860F30B21196018681168C0F32A
:10093000032088420BD15068196860F3CF311960E9
:1009400018685368C0F3C0329A4204D108BD6FF0F2
:10095000C700FFF7EBFE6FF0C800FFF7E7FE00BF30
:0409600080090020EA
:100964000304000001010000020100000301000073
:0C09740004010000050100000501020064
:0809800000000000010000006E
:04000005200008814E
:00000001FF
